{
  "_format": "hh-sol-artifact-1",
  "contractName": "StakeX",
  "sourceName": "contracts/StakeX.sol",
  "abi": [
    {
      "inputs": [],
      "stateMutability": "nonpayable",
      "type": "constructor"
    },
    {
      "inputs": [],
      "name": "AccessControlBadConfirmation",
      "type": "error"
    },
    {
      "inputs": [
        {
          "internalType": "address",
          "name": "account",
          "type": "address"
        },
        {
          "internalType": "bytes32",
          "name": "neededRole",
          "type": "bytes32"
        }
      ],
      "name": "AccessControlUnauthorizedAccount",
      "type": "error"
    },
    {
      "inputs": [
        {
          "internalType": "address",
          "name": "spender",
          "type": "address"
        },
        {
          "internalType": "uint256",
          "name": "allowance",
          "type": "uint256"
        },
        {
          "internalType": "uint256",
          "name": "needed",
          "type": "uint256"
        }
      ],
      "name": "ERC20InsufficientAllowance",
      "type": "error"
    },
    {
      "inputs": [
        {
          "internalType": "address",
          "name": "sender",
          "type": "address"
        },
        {
          "internalType": "uint256",
          "name": "balance",
          "type": "uint256"
        },
        {
          "internalType": "uint256",
          "name": "needed",
          "type": "uint256"
        }
      ],
      "name": "ERC20InsufficientBalance",
      "type": "error"
    },
    {
      "inputs": [
        {
          "internalType": "address",
          "name": "approver",
          "type": "address"
        }
      ],
      "name": "ERC20InvalidApprover",
      "type": "error"
    },
    {
      "inputs": [
        {
          "internalType": "address",
          "name": "receiver",
          "type": "address"
        }
      ],
      "name": "ERC20InvalidReceiver",
      "type": "error"
    },
    {
      "inputs": [
        {
          "internalType": "address",
          "name": "sender",
          "type": "address"
        }
      ],
      "name": "ERC20InvalidSender",
      "type": "error"
    },
    {
      "inputs": [
        {
          "internalType": "address",
          "name": "spender",
          "type": "address"
        }
      ],
      "name": "ERC20InvalidSpender",
      "type": "error"
    },
    {
      "anonymous": false,
      "inputs": [
        {
          "indexed": true,
          "internalType": "address",
          "name": "owner",
          "type": "address"
        },
        {
          "indexed": true,
          "internalType": "address",
          "name": "spender",
          "type": "address"
        },
        {
          "indexed": false,
          "internalType": "uint256",
          "name": "value",
          "type": "uint256"
        }
      ],
      "name": "Approval",
      "type": "event"
    },
    {
      "anonymous": false,
      "inputs": [
        {
          "indexed": true,
          "internalType": "bytes32",
          "name": "role",
          "type": "bytes32"
        },
        {
          "indexed": true,
          "internalType": "bytes32",
          "name": "previousAdminRole",
          "type": "bytes32"
        },
        {
          "indexed": true,
          "internalType": "bytes32",
          "name": "newAdminRole",
          "type": "bytes32"
        }
      ],
      "name": "RoleAdminChanged",
      "type": "event"
    },
    {
      "anonymous": false,
      "inputs": [
        {
          "indexed": true,
          "internalType": "bytes32",
          "name": "role",
          "type": "bytes32"
        },
        {
          "indexed": true,
          "internalType": "address",
          "name": "account",
          "type": "address"
        },
        {
          "indexed": true,
          "internalType": "address",
          "name": "sender",
          "type": "address"
        }
      ],
      "name": "RoleGranted",
      "type": "event"
    },
    {
      "anonymous": false,
      "inputs": [
        {
          "indexed": true,
          "internalType": "bytes32",
          "name": "role",
          "type": "bytes32"
        },
        {
          "indexed": true,
          "internalType": "address",
          "name": "account",
          "type": "address"
        },
        {
          "indexed": true,
          "internalType": "address",
          "name": "sender",
          "type": "address"
        }
      ],
      "name": "RoleRevoked",
      "type": "event"
    },
    {
      "anonymous": false,
      "inputs": [
        {
          "indexed": true,
          "internalType": "address",
          "name": "from",
          "type": "address"
        },
        {
          "indexed": true,
          "internalType": "address",
          "name": "to",
          "type": "address"
        },
        {
          "indexed": false,
          "internalType": "uint256",
          "name": "value",
          "type": "uint256"
        }
      ],
      "name": "Transfer",
      "type": "event"
    },
    {
      "inputs": [],
      "name": "DEFAULT_ADMIN_ROLE",
      "outputs": [
        {
          "internalType": "bytes32",
          "name": "",
          "type": "bytes32"
        }
      ],
      "stateMutability": "view",
      "type": "function"
    },
    {
      "inputs": [],
      "name": "MINTER_ROLE",
      "outputs": [
        {
          "internalType": "bytes32",
          "name": "",
          "type": "bytes32"
        }
      ],
      "stateMutability": "view",
      "type": "function"
    },
    {
      "inputs": [
        {
          "internalType": "address",
          "name": "owner",
          "type": "address"
        },
        {
          "internalType": "address",
          "name": "spender",
          "type": "address"
        }
      ],
      "name": "allowance",
      "outputs": [
        {
          "internalType": "uint256",
          "name": "",
          "type": "uint256"
        }
      ],
      "stateMutability": "view",
      "type": "function"
    },
    {
      "inputs": [
        {
          "internalType": "address",
          "name": "spender",
          "type": "address"
        },
        {
          "internalType": "uint256",
          "name": "value",
          "type": "uint256"
        }
      ],
      "name": "approve",
      "outputs": [
        {
          "internalType": "bool",
          "name": "",
          "type": "bool"
        }
      ],
      "stateMutability": "nonpayable",
      "type": "function"
    },
    {
      "inputs": [
        {
          "internalType": "address",
          "name": "account",
          "type": "address"
        }
      ],
      "name": "balanceOf",
      "outputs": [
        {
          "internalType": "uint256",
          "name": "",
          "type": "uint256"
        }
      ],
      "stateMutability": "view",
      "type": "function"
    },
    {
      "inputs": [],
      "name": "decimals",
      "outputs": [
        {
          "internalType": "uint8",
          "name": "",
          "type": "uint8"
        }
      ],
      "stateMutability": "pure",
      "type": "function"
    },
    {
      "inputs": [
        {
          "internalType": "bytes32",
          "name": "role",
          "type": "bytes32"
        }
      ],
      "name": "getRoleAdmin",
      "outputs": [
        {
          "internalType": "bytes32",
          "name": "",
          "type": "bytes32"
        }
      ],
      "stateMutability": "view",
      "type": "function"
    },
    {
      "inputs": [
        {
          "internalType": "address",
          "name": "account",
          "type": "address"
        }
      ],
      "name": "grantMinterRole",
      "outputs": [],
      "stateMutability": "nonpayable",
      "type": "function"
    },
    {
      "inputs": [
        {
          "internalType": "bytes32",
          "name": "role",
          "type": "bytes32"
        },
        {
          "internalType": "address",
          "name": "account",
          "type": "address"
        }
      ],
      "name": "grantRole",
      "outputs": [],
      "stateMutability": "nonpayable",
      "type": "function"
    },
    {
      "inputs": [
        {
          "internalType": "bytes32",
          "name": "role",
          "type": "bytes32"
        },
        {
          "internalType": "address",
          "name": "account",
          "type": "address"
        }
      ],
      "name": "hasRole",
      "outputs": [
        {
          "internalType": "bool",
          "name": "",
          "type": "bool"
        }
      ],
      "stateMutability": "view",
      "type": "function"
    },
    {
      "inputs": [
        {
          "internalType": "address",
          "name": "to",
          "type": "address"
        },
        {
          "internalType": "uint256",
          "name": "amount",
          "type": "uint256"
        }
      ],
      "name": "mint",
      "outputs": [],
      "stateMutability": "nonpayable",
      "type": "function"
    },
    {
      "inputs": [],
      "name": "name",
      "outputs": [
        {
          "internalType": "string",
          "name": "",
          "type": "string"
        }
      ],
      "stateMutability": "view",
      "type": "function"
    },
    {
      "inputs": [
        {
          "internalType": "bytes32",
          "name": "role",
          "type": "bytes32"
        },
        {
          "internalType": "address",
          "name": "callerConfirmation",
          "type": "address"
        }
      ],
      "name": "renounceRole",
      "outputs": [],
      "stateMutability": "nonpayable",
      "type": "function"
    },
    {
      "inputs": [
        {
          "internalType": "address",
          "name": "account",
          "type": "address"
        }
      ],
      "name": "revokeMinterRole",
      "outputs": [],
      "stateMutability": "nonpayable",
      "type": "function"
    },
    {
      "inputs": [
        {
          "internalType": "bytes32",
          "name": "role",
          "type": "bytes32"
        },
        {
          "internalType": "address",
          "name": "account",
          "type": "address"
        }
      ],
      "name": "revokeRole",
      "outputs": [],
      "stateMutability": "nonpayable",
      "type": "function"
    },
    {
      "inputs": [
        {
          "internalType": "bytes4",
          "name": "interfaceId",
          "type": "bytes4"
        }
      ],
      "name": "supportsInterface",
      "outputs": [
        {
          "internalType": "bool",
          "name": "",
          "type": "bool"
        }
      ],
      "stateMutability": "view",
      "type": "function"
    },
    {
      "inputs": [],
      "name": "symbol",
      "outputs": [
        {
          "internalType": "string",
          "name": "",
          "type": "string"
        }
      ],
      "stateMutability": "view",
      "type": "function"
    },
    {
      "inputs": [],
      "name": "totalSupply",
      "outputs": [
        {
          "internalType": "uint256",
          "name": "",
          "type": "uint256"
        }
      ],
      "stateMutability": "view",
      "type": "function"
    },
    {
      "inputs": [
        {
          "internalType": "address",
          "name": "to",
          "type": "address"
        },
        {
          "internalType": "uint256",
          "name": "value",
          "type": "uint256"
        }
      ],
      "name": "transfer",
      "outputs": [
        {
          "internalType": "bool",
          "name": "",
          "type": "bool"
        }
      ],
      "stateMutability": "nonpayable",
      "type": "function"
    },
    {
      "inputs": [
        {
          "internalType": "address",
          "name": "from",
          "type": "address"
        },
        {
          "internalType": "address",
          "name": "to",
          "type": "address"
        },
        {
          "internalType": "uint256",
          "name": "value",
          "type": "uint256"
        }
      ],
      "name": "transferFrom",
      "outputs": [
        {
          "internalType": "bool",
          "name": "",
          "type": "bool"
        }
      ],
      "stateMutability": "nonpayable",
      "type": "function"
    }
  ],
  "bytecode": "0x608060405234801561001057600080fd5b50604051806040016040528060068152602001650a6e8c2d6cab60d31b815250604051806040016040528060038152602001620a6a8b60eb1b815250816003908161005b9190610372565b5060046100688282610372565b50610078915060009050336100ba565b506100a37f9f2df0fed2c77648de5860a4cc508cd0818c85b8b8a1ab4ceeef8d981c8956a6336100ba565b506100b5336601c6bf5263400061016a565b610451565b60008281526005602090815260408083206001600160a01b038516845290915281205460ff166101605760008381526005602090815260408083206001600160a01b03861684529091529020805460ff191660011790556101183390565b6001600160a01b0316826001600160a01b0316847f2f8788117e7eff1d82e926ec794901d17c78024a50270940304540a733656f0d60405160405180910390a4506001610164565b5060005b92915050565b6001600160a01b0382166101995760405163ec442f0560e01b8152600060048201526024015b60405180910390fd5b6101a5600083836101a9565b5050565b6001600160a01b0383166101d45780600260008282546101c99190610430565b909155506102469050565b6001600160a01b038316600090815260208190526040902054818110156102275760405163391434e360e21b81526001600160a01b03851660048201526024810182905260448101839052606401610190565b6001600160a01b03841660009081526020819052604090209082900390555b6001600160a01b03821661026257600280548290039055610281565b6001600160a01b03821660009081526020819052604090208054820190555b816001600160a01b0316836001600160a01b03167fddf252ad1be2c89b69c2b068fc378daa952ba7f163c4a11628f55a4df523b3ef836040516102c691815260200190565b60405180910390a3505050565b634e487b7160e01b600052604160045260246000fd5b600181811c908216806102fd57607f821691505b60208210810361031d57634e487b7160e01b600052602260045260246000fd5b50919050565b601f82111561036d57806000526020600020601f840160051c8101602085101561034a5750805b601f840160051c820191505b8181101561036a5760008155600101610356565b50505b505050565b81516001600160401b0381111561038b5761038b6102d3565b61039f8161039984546102e9565b84610323565b6020601f8211600181146103d357600083156103bb5750848201515b600019600385901b1c1916600184901b17845561036a565b600084815260208120601f198516915b8281101561040357878501518255602094850194600190920191016103e3565b50848210156104215786840151600019600387901b60f8161c191681555b50505050600190811b01905550565b8082018082111561016457634e487b7160e01b600052601160045260246000fd5b610bdd806104606000396000f3fe608060405234801561001057600080fd5b506004361061012c5760003560e01c806340c10f19116100ad578063a217fddf11610071578063a217fddf1461027d578063a9059cbb14610285578063d539139314610298578063d547741f146102ad578063dd62ed3e146102c057600080fd5b806340c10f191461021357806369e2f0fb1461022657806370a082311461023957806391d148541461026257806395d89b411461027557600080fd5b8063248a9ca3116100f4578063248a9ca3146101a65780632f2ff15d146101c9578063313ce567146101de57806336568abe146101ed5780633dd1eb611461020057600080fd5b806301ffc9a71461013157806306fdde0314610159578063095ea7b31461016e57806318160ddd1461018157806323b872dd14610193575b600080fd5b61014461013f3660046109a0565b6102f9565b60405190151581526020015b60405180910390f35b610161610330565b60405161015091906109d1565b61014461017c366004610a3b565b6103c2565b6002545b604051908152602001610150565b6101446101a1366004610a65565b6103da565b6101856101b4366004610aa2565b60009081526005602052604090206001015490565b6101dc6101d7366004610abb565b6103fe565b005b60405160088152602001610150565b6101dc6101fb366004610abb565b610429565b6101dc61020e366004610ae7565b610461565b6101dc610221366004610a3b565b610484565b6101dc610234366004610ae7565b6104a6565b610185610247366004610ae7565b6001600160a01b031660009081526020819052604090205490565b610144610270366004610abb565b6104c9565b6101616104f4565b610185600081565b610144610293366004610a3b565b610503565b610185600080516020610b8883398151915281565b6101dc6102bb366004610abb565b610511565b6101856102ce366004610b02565b6001600160a01b03918216600090815260016020908152604080832093909416825291909152205490565b60006001600160e01b03198216637965db0b60e01b148061032a57506301ffc9a760e01b6001600160e01b03198316145b92915050565b60606003805461033f90610b2c565b80601f016020809104026020016040519081016040528092919081815260200182805461036b90610b2c565b80156103b85780601f1061038d576101008083540402835291602001916103b8565b820191906000526020600020905b81548152906001019060200180831161039b57829003601f168201915b5050505050905090565b6000336103d0818585610536565b5060019392505050565b6000336103e8858285610543565b6103f38585856105c1565b506001949350505050565b60008281526005602052604090206001015461041981610620565b610423838361062d565b50505050565b6001600160a01b03811633146104525760405163334bd91960e11b815260040160405180910390fd5b61045c82826106c1565b505050565b600061046c81610620565b61045c600080516020610b888339815191528361062d565b600080516020610b8883398151915261049c81610620565b61045c838361072e565b60006104b181610620565b61045c600080516020610b88833981519152836106c1565b60009182526005602090815260408084206001600160a01b0393909316845291905290205460ff1690565b60606004805461033f90610b2c565b6000336103d08185856105c1565b60008281526005602052604090206001015461052c81610620565b61042383836106c1565b61045c8383836001610768565b6001600160a01b0383811660009081526001602090815260408083209386168352929052205460001981101561042357818110156105b257604051637dc7a0d960e11b81526001600160a01b038416600482015260248101829052604481018390526064015b60405180910390fd5b61042384848484036000610768565b6001600160a01b0383166105eb57604051634b637e8f60e11b8152600060048201526024016105a9565b6001600160a01b0382166106155760405163ec442f0560e01b8152600060048201526024016105a9565b61045c83838361083d565b61062a8133610967565b50565b600061063983836104c9565b6106b95760008381526005602090815260408083206001600160a01b03861684529091529020805460ff191660011790556106713390565b6001600160a01b0316826001600160a01b0316847f2f8788117e7eff1d82e926ec794901d17c78024a50270940304540a733656f0d60405160405180910390a450600161032a565b50600061032a565b60006106cd83836104c9565b156106b95760008381526005602090815260408083206001600160a01b0386168085529252808320805460ff1916905551339286917ff6391f5c32d9c69d2a47ea670b442974b53935d1edc7fd64eb21e047a839171b9190a450600161032a565b6001600160a01b0382166107585760405163ec442f0560e01b8152600060048201526024016105a9565b6107646000838361083d565b5050565b6001600160a01b0384166107925760405163e602df0560e01b8152600060048201526024016105a9565b6001600160a01b0383166107bc57604051634a1406b160e11b8152600060048201526024016105a9565b6001600160a01b038085166000908152600160209081526040808320938716835292905220829055801561042357826001600160a01b0316846001600160a01b03167f8c5be1e5ebec7d5bd14f71427d1e84f3dd0314c0f7b2291e5b200ac8c7c3b9258460405161082f91815260200190565b60405180910390a350505050565b6001600160a01b03831661086857806002600082825461085d9190610b66565b909155506108da9050565b6001600160a01b038316600090815260208190526040902054818110156108bb5760405163391434e360e21b81526001600160a01b038516600482015260248101829052604481018390526064016105a9565b6001600160a01b03841660009081526020819052604090209082900390555b6001600160a01b0382166108f657600280548290039055610915565b6001600160a01b03821660009081526020819052604090208054820190555b816001600160a01b0316836001600160a01b03167fddf252ad1be2c89b69c2b068fc378daa952ba7f163c4a11628f55a4df523b3ef8360405161095a91815260200190565b60405180910390a3505050565b61097182826104c9565b6107645760405163e2517d3f60e01b81526001600160a01b0382166004820152602481018390526044016105a9565b6000602082840312156109b257600080fd5b81356001600160e01b0319811681146109ca57600080fd5b9392505050565b602081526000825180602084015260005b818110156109ff57602081860181015160408684010152016109e2565b506000604082850101526040601f19601f83011684010191505092915050565b80356001600160a01b0381168114610a3657600080fd5b919050565b60008060408385031215610a4e57600080fd5b610a5783610a1f565b946020939093013593505050565b600080600060608486031215610a7a57600080fd5b610a8384610a1f565b9250610a9160208501610a1f565b929592945050506040919091013590565b600060208284031215610ab457600080fd5b5035919050565b60008060408385031215610ace57600080fd5b82359150610ade60208401610a1f565b90509250929050565b600060208284031215610af957600080fd5b6109ca82610a1f565b60008060408385031215610b1557600080fd5b610b1e83610a1f565b9150610ade60208401610a1f565b600181811c90821680610b4057607f821691505b602082108103610b6057634e487b7160e01b600052602260045260246000fd5b50919050565b8082018082111561032a57634e487b7160e01b600052601160045260246000fdfe9f2df0fed2c77648de5860a4cc508cd0818c85b8b8a1ab4ceeef8d981c8956a6a26469706673582212205deb808915e4ee638491e78e5f5d06cd00b151773c7fd9a9dfb9a2a71dadec6764736f6c634300081b0033",
  "linkReferences": {},
  "deployedLinkReferences": {}
}